{
    "abi": [
        {
            "inputs": [
                {
                    "internalType": "address",
                    "name": "target",
                    "type": "address"
                }
            ],
            "name": "AddressEmptyCode",
            "type": "error"
        },
        {
            "inputs": [
                {
                    "internalType": "address",
                    "name": "implementation",
                    "type": "address"
                }
            ],
            "name": "ERC1967InvalidImplementation",
            "type": "error"
        },
        {
            "inputs": [],
            "name": "ERC1967NonPayable",
            "type": "error"
        },
        {
            "inputs": [],
            "name": "FailedInnerCall",
            "type": "error"
        },
        {
            "inputs": [],
            "name": "InsufficientDeadline",
            "type": "error"
        },
        {
            "inputs": [],
            "name": "InsufficientValue",
            "type": "error"
        },
        {
            "inputs": [],
            "name": "InvalidAddress",
            "type": "error"
        },
        {
            "inputs": [],
            "name": "InvalidInitialization",
            "type": "error"
        },
        {
            "inputs": [],
            "name": "NotInitializing",
            "type": "error"
        },
        {
            "inputs": [],
            "name": "OfferHasExpired",
            "type": "error"
        },
        {
            "inputs": [],
            "name": "OfferNotExist",
            "type": "error"
        },
        {
            "inputs": [],
            "name": "OfferNotExpired",
            "type": "error"
        },
        {
            "inputs": [],
            "name": "TransferFailed",
            "type": "error"
        },
        {
            "inputs": [],
            "name": "UUPSUnauthorizedCallContext",
            "type": "error"
        },
        {
            "inputs": [
                {
                    "internalType": "bytes32",
                    "name": "slot",
                    "type": "bytes32"
                }
            ],
            "name": "UUPSUnsupportedProxiableUUID",
            "type": "error"
        },
        {
            "inputs": [],
            "name": "YouAreNotOwner",
            "type": "error"
        },
        {
            "anonymous": false,
            "inputs": [
                {
                    "indexed": true,
                    "internalType": "uint256",
                    "name": "buyOfferIdCounter",
                    "type": "uint256"
                },
                {
                    "indexed": true,
                    "internalType": "address",
                    "name": "acceptedBy",
                    "type": "address"
                }
            ],
            "name": "BuyOfferAccepted",
            "type": "event"
        },
        {
            "anonymous": false,
            "inputs": [
                {
                    "indexed": true,
                    "internalType": "uint256",
                    "name": "buyOfferIdCounter",
                    "type": "uint256"
                },
                {
                    "indexed": true,
                    "internalType": "address",
                    "name": "cancelledBy",
                    "type": "address"
                }
            ],
            "name": "BuyOfferCancelled",
            "type": "event"
        },
        {
            "anonymous": false,
            "inputs": [
                {
                    "indexed": false,
                    "internalType": "uint64",
                    "name": "version",
                    "type": "uint64"
                }
            ],
            "name": "Initialized",
            "type": "event"
        },
        {
            "anonymous": false,
            "inputs": [
                {
                    "indexed": true,
                    "internalType": "uint256",
                    "name": "buyOfferIdCounter",
                    "type": "uint256"
                },
                {
                    "indexed": true,
                    "internalType": "address",
                    "name": "createdBy",
                    "type": "address"
                }
            ],
            "name": "NewBuyOffer",
            "type": "event"
        },
        {
            "anonymous": false,
            "inputs": [
                {
                    "indexed": true,
                    "internalType": "uint256",
                    "name": "sellOfferIdCounter",
                    "type": "uint256"
                },
                {
                    "indexed": true,
                    "internalType": "address",
                    "name": "createdBy",
                    "type": "address"
                }
            ],
            "name": "NewSellOffer",
            "type": "event"
        },
        {
            "anonymous": false,
            "inputs": [
                {
                    "indexed": true,
                    "internalType": "uint256",
                    "name": "sellOfferIdCounter",
                    "type": "uint256"
                },
                {
                    "indexed": true,
                    "internalType": "address",
                    "name": "acceptedBy",
                    "type": "address"
                }
            ],
            "name": "SellOfferAccepted",
            "type": "event"
        },
        {
            "anonymous": false,
            "inputs": [
                {
                    "indexed": true,
                    "internalType": "uint256",
                    "name": "sellOfferIdCounter",
                    "type": "uint256"
                },
                {
                    "indexed": true,
                    "internalType": "address",
                    "name": "cancelledBy",
                    "type": "address"
                }
            ],
            "name": "SellOfferCancelled",
            "type": "event"
        },
        {
            "anonymous": false,
            "inputs": [
                {
                    "indexed": true,
                    "internalType": "address",
                    "name": "implementation",
                    "type": "address"
                }
            ],
            "name": "Upgraded",
            "type": "event"
        },
        {
            "stateMutability": "payable",
            "type": "fallback"
        },
        {
            "inputs": [],
            "name": "UPGRADE_INTERFACE_VERSION",
            "outputs": [
                {
                    "internalType": "string",
                    "name": "",
                    "type": "string"
                }
            ],
            "stateMutability": "view",
            "type": "function"
        },
        {
            "inputs": [
                {
                    "internalType": "uint256",
                    "name": "_buyOfferIdCounter",
                    "type": "uint256"
                }
            ],
            "name": "acceptBuyOffer",
            "outputs": [],
            "stateMutability": "nonpayable",
            "type": "function"
        },
        {
            "inputs": [
                {
                    "internalType": "uint256",
                    "name": "_sellOfferIdCounter",
                    "type": "uint256"
                }
            ],
            "name": "acceptSellOffer",
            "outputs": [],
            "stateMutability": "payable",
            "type": "function"
        },
        {
            "inputs": [],
            "name": "buyOfferIdCounter",
            "outputs": [
                {
                    "internalType": "uint256",
                    "name": "",
                    "type": "uint256"
                }
            ],
            "stateMutability": "view",
            "type": "function"
        },
        {
            "inputs": [
                {
                    "internalType": "uint256",
                    "name": "",
                    "type": "uint256"
                }
            ],
            "name": "buyOffers",
            "outputs": [
                {
                    "internalType": "address",
                    "name": "nftAddress",
                    "type": "address"
                },
                {
                    "internalType": "address",
                    "name": "offerer",
                    "type": "address"
                },
                {
                    "internalType": "uint256",
                    "name": "tokenId",
                    "type": "uint256"
                },
                {
                    "internalType": "uint256",
                    "name": "price",
                    "type": "uint256"
                },
                {
                    "internalType": "uint256",
                    "name": "deadline",
                    "type": "uint256"
                },
                {
                    "internalType": "bool",
                    "name": "isEnded",
                    "type": "bool"
                }
            ],
            "stateMutability": "view",
            "type": "function"
        },
        {
            "inputs": [
                {
                    "internalType": "uint256",
                    "name": "_buyOfferIdCounter",
                    "type": "uint256"
                }
            ],
            "name": "cancelBuyOffer",
            "outputs": [],
            "stateMutability": "nonpayable",
            "type": "function"
        },
        {
            "inputs": [
                {
                    "internalType": "uint256",
                    "name": "_sellOfferIdCounter",
                    "type": "uint256"
                }
            ],
            "name": "cancelSellOffer",
            "outputs": [],
            "stateMutability": "nonpayable",
            "type": "function"
        },
        {
            "inputs": [
                {
                    "internalType": "address",
                    "name": "_nftAddress",
                    "type": "address"
                },
                {
                    "internalType": "uint256",
                    "name": "_tokenId",
                    "type": "uint256"
                },
                {
                    "internalType": "uint256",
                    "name": "_deadline",
                    "type": "uint256"
                }
            ],
            "name": "createBuyOffer",
            "outputs": [],
            "stateMutability": "payable",
            "type": "function"
        },
        {
            "inputs": [
                {
                    "internalType": "address",
                    "name": "_nftAddress",
                    "type": "address"
                },
                {
                    "internalType": "uint256",
                    "name": "_tokenId",
                    "type": "uint256"
                },
                {
                    "internalType": "uint256",
                    "name": "_price",
                    "type": "uint256"
                },
                {
                    "internalType": "uint256",
                    "name": "_deadline",
                    "type": "uint256"
                }
            ],
            "name": "createSellOffer",
            "outputs": [],
            "stateMutability": "nonpayable",
            "type": "function"
        },
        {
            "inputs": [
                {
                    "internalType": "uint256",
                    "name": "offerId",
                    "type": "uint256"
                }
            ],
            "name": "getBuyOffer",
            "outputs": [
                {
                    "internalType": "address",
                    "name": "",
                    "type": "address"
                },
                {
                    "internalType": "address",
                    "name": "",
                    "type": "address"
                },
                {
                    "internalType": "uint256",
                    "name": "",
                    "type": "uint256"
                },
                {
                    "internalType": "uint256",
                    "name": "",
                    "type": "uint256"
                },
                {
                    "internalType": "bool",
                    "name": "",
                    "type": "bool"
                }
            ],
            "stateMutability": "view",
            "type": "function"
        },
        {
            "inputs": [
                {
                    "internalType": "uint256",
                    "name": "offerId",
                    "type": "uint256"
                }
            ],
            "name": "getSellOffer",
            "outputs": [
                {
                    "internalType": "address",
                    "name": "",
                    "type": "address"
                },
                {
                    "internalType": "address",
                    "name": "",
                    "type": "address"
                },
                {
                    "internalType": "uint256",
                    "name": "",
                    "type": "uint256"
                },
                {
                    "internalType": "uint256",
                    "name": "",
                    "type": "uint256"
                },
                {
                    "internalType": "bool",
                    "name": "",
                    "type": "bool"
                }
            ],
            "stateMutability": "view",
            "type": "function"
        },
        {
            "inputs": [
                {
                    "internalType": "string",
                    "name": "_marketplaceName",
                    "type": "string"
                }
            ],
            "name": "initialize",
            "outputs": [],
            "stateMutability": "nonpayable",
            "type": "function"
        },
        {
            "inputs": [],
            "name": "marketplaceName",
            "outputs": [
                {
                    "internalType": "string",
                    "name": "",
                    "type": "string"
                }
            ],
            "stateMutability": "view",
            "type": "function"
        },
        {
            "inputs": [],
            "name": "offer",
            "outputs": [
                {
                    "internalType": "address",
                    "name": "nftAddress",
                    "type": "address"
                },
                {
                    "internalType": "address",
                    "name": "offerer",
                    "type": "address"
                },
                {
                    "internalType": "uint256",
                    "name": "tokenId",
                    "type": "uint256"
                },
                {
                    "internalType": "uint256",
                    "name": "price",
                    "type": "uint256"
                },
                {
                    "internalType": "uint256",
                    "name": "deadline",
                    "type": "uint256"
                },
                {
                    "internalType": "bool",
                    "name": "isEnded",
                    "type": "bool"
                }
            ],
            "stateMutability": "view",
            "type": "function"
        },
        {
            "inputs": [
                {
                    "internalType": "address",
                    "name": "operator",
                    "type": "address"
                },
                {
                    "internalType": "address",
                    "name": "from",
                    "type": "address"
                },
                {
                    "internalType": "uint256",
                    "name": "tokenId",
                    "type": "uint256"
                },
                {
                    "internalType": "bytes",
                    "name": "data",
                    "type": "bytes"
                }
            ],
            "name": "onERC721Received",
            "outputs": [
                {
                    "internalType": "bytes4",
                    "name": "",
                    "type": "bytes4"
                }
            ],
            "stateMutability": "pure",
            "type": "function"
        },
        {
            "inputs": [],
            "name": "owner",
            "outputs": [
                {
                    "internalType": "address",
                    "name": "",
                    "type": "address"
                }
            ],
            "stateMutability": "view",
            "type": "function"
        },
        {
            "inputs": [],
            "name": "proxiableUUID",
            "outputs": [
                {
                    "internalType": "bytes32",
                    "name": "",
                    "type": "bytes32"
                }
            ],
            "stateMutability": "view",
            "type": "function"
        },
        {
            "inputs": [],
            "name": "sellOfferIdCounter",
            "outputs": [
                {
                    "internalType": "uint256",
                    "name": "",
                    "type": "uint256"
                }
            ],
            "stateMutability": "view",
            "type": "function"
        },
        {
            "inputs": [
                {
                    "internalType": "uint256",
                    "name": "",
                    "type": "uint256"
                }
            ],
            "name": "sellOffers",
            "outputs": [
                {
                    "internalType": "address",
                    "name": "nftAddress",
                    "type": "address"
                },
                {
                    "internalType": "address",
                    "name": "offerer",
                    "type": "address"
                },
                {
                    "internalType": "uint256",
                    "name": "tokenId",
                    "type": "uint256"
                },
                {
                    "internalType": "uint256",
                    "name": "price",
                    "type": "uint256"
                },
                {
                    "internalType": "uint256",
                    "name": "deadline",
                    "type": "uint256"
                },
                {
                    "internalType": "bool",
                    "name": "isEnded",
                    "type": "bool"
                }
            ],
            "stateMutability": "view",
            "type": "function"
        },
        {
            "inputs": [
                {
                    "internalType": "address",
                    "name": "newImplementation",
                    "type": "address"
                },
                {
                    "internalType": "bytes",
                    "name": "data",
                    "type": "bytes"
                }
            ],
            "name": "upgradeToAndCall",
            "outputs": [],
            "stateMutability": "payable",
            "type": "function"
        },
        {
            "stateMutability": "payable",
            "type": "receive"
        }
    ],
    "bytecode": {
        "object": "0x60a06040523060805234801561001457600080fd5b50608051611abd61003e600039600081816111a0015281816111c901526113820152611abd6000f3fe6080604052600436106101175760003560e01c80638da5cb5b1161009a578063c028df0611610061578063c028df061461045e578063c79a8ece14610498578063c9fa5d2d146104ab578063d6ed0cff14610506578063f62d18881461051c57005b80638da5cb5b1461032f57806398d91a2614610367578063a7671b3514610387578063ad3cb1cc14610417578063b4405c341461044857005b8063371da599116100de578063371da5991461025957806345502349146102b95780634e284e3c146102d95780634f1ef286146102f957806352d1902d1461030c57005b806309b0672114610120578063150b7a021461013357806317357a7f1461017d5780631a46829c146102175780631d6069fc1461023757005b3661011e57005b005b61011e61012e36600461159a565b61053c565b34801561013f57600080fd5b5061015f61014e3660046115c8565b630a85bd0160e11b95945050505050565b6040516001600160e01b031990911681526020015b60405180910390f35b34801561018957600080fd5b506101dd61019836600461159a565b600a602052600090815260409020805460018201546002830154600384015460048501546005909501546001600160a01b039485169593909416939192909160ff1686565b604080516001600160a01b0397881681529690951660208701529385019290925260608401526080830152151560a082015260c001610174565b34801561022357600080fd5b5061011e61023236600461159a565b61072e565b34801561024357600080fd5b5061024c610884565b604051610174919061168b565b34801561026557600080fd5b506101dd61027436600461159a565b600b602052600090815260409020805460018201546002830154600384015460048501546005909501546001600160a01b039485169593909416939192909160ff1686565b3480156102c557600080fd5b5061011e6102d436600461159a565b610912565b3480156102e557600080fd5b5061011e6102f43660046116be565b610b5d565b61011e610307366004611785565b610d86565b34801561031857600080fd5b50610321610da5565b604051908152602001610174565b34801561033b57600080fd5b5060085461034f906001600160a01b031681565b6040516001600160a01b039091168152602001610174565b34801561037357600080fd5b5061011e61038236600461159a565b610dc2565b34801561039357600080fd5b506103e26103a236600461159a565b6000908152600b6020526040902080546001820154600283015460038401546005909401546001600160a01b039384169593909216939092909160ff1690565b604080516001600160a01b0396871681529590941660208601529284019190915260608301521515608082015260a001610174565b34801561042357600080fd5b5061024c604051806040016040528060058152602001640352e302e360dc1b81525081565b34801561045457600080fd5b5061032160075481565b34801561046a57600080fd5b506000546001546002546003546004546005546101dd956001600160a01b0390811695169392919060ff1686565b61011e6104a63660046117e9565b610f1c565b3480156104b757600080fd5b506103e26104c636600461159a565b6000908152600a6020526040902080546001820154600283015460038401546005909401546001600160a01b039384169593909216939092909160ff1690565b34801561051257600080fd5b5061032160065481565b34801561052857600080fd5b5061011e61053736600461181e565b61106f565b6000818152600a6020526040902060050154819060ff161561057157604051637d1928ad60e01b815260040160405180910390fd5b6000818152600a602052604090206004015442106105a25760405163fe34af8760e01b815260040160405180910390fd5b6000818152600a60205260409020600301543410156105d45760405163044044a560e21b815260040160405180910390fd5b336105f25760405163e6c4247b60e01b815260040160405180910390fd5b6000818152600a60205260409081902060058101805460ff1916600117905580546002909101549151632142170760e11b81526001600160a01b03909116916342842e0e9161064891309133919060040161186f565b600060405180830381600087803b15801561066257600080fd5b505af1158015610676573d6000803e3d6000fd5b5050506000828152600a60205260408082206001015490519192506001600160a01b03169034908381818185875af1925050503d80600081146106d5576040519150601f19603f3d011682016040523d82523d6000602084013e6106da565b606091505b50509050806106fc576040516312171d8360e31b815260040160405180910390fd5b604051339083907fbd02e21f9bbd354fa57e2d00821fc7c6e6bab2b28ae5d54962342ea53f8d6be890600090a3505050565b6000818152600b602052604090206005015460ff161561076157604051637d1928ad60e01b815260040160405180910390fd5b6000818152600b60205260409020600101546001600160a01b0316331461079b57604051636abb196760e11b815260040160405180910390fd5b6000818152600b60205260409020600401544210156107cd57604051637100cb6d60e01b815260040160405180910390fd5b6000818152600b602052604080822060058101805460ff191660011790556003015490513391908381818185875af1925050503d806000811461082c576040519150601f19603f3d011682016040523d82523d6000602084013e610831565b606091505b5050905080610853576040516312171d8360e31b815260040160405180910390fd5b604051339083907f4e130e6d0553efd75e9f43a36ab18e66773605643091a1a51895ec25fd6ddc2f90600090a35050565b6009805461089190611893565b80601f01602080910402602001604051908101604052809291908181526020018280546108bd90611893565b801561090a5780601f106108df5761010080835404028352916020019161090a565b820191906000526020600020905b8154815290600101906020018083116108ed57829003601f168201915b505050505081565b6000818152600b6020526040902060050154819060ff161561094757604051637d1928ad60e01b815260040160405180910390fd5b6000818152600b602052604090819020805460029091015491516331a9108f60e11b8152600481019290925233916001600160a01b0390911690636352211e90602401602060405180830381865afa1580156109a7573d6000803e3d6000fd5b505050506040513d601f19601f820116820180604052508101906109cb91906118cd565b6001600160a01b0316146109f257604051636abb196760e11b815260040160405180910390fd5b6000818152600b60205260409020600401544210610a235760405163fe34af8760e01b815260040160405180910390fd5b6000818152600b60205260409081902060058101805460ff191660019081179091558154908201546002909201549251632142170760e11b81526001600160a01b03918216936342842e0e93610a819333939116919060040161186f565b600060405180830381600087803b158015610a9b57600080fd5b505af1158015610aaf573d6000803e3d6000fd5b5050506000828152600b602052604080822060030154905191925033918381818185875af1925050503d8060008114610b04576040519150601f19603f3d011682016040523d82523d6000602084013e610b09565b606091505b5050905080610b2b576040516312171d8360e31b815260040160405180910390fd5b604051339083907fa18cc9e7d1895a5de963c792c7a9561bd041896889b25f231d77b0a479c4342790600090a3505050565b81600003610b7e5760405163044044a560e21b815260040160405180910390fd5b6040516331a9108f60e11b81526004810184905233906001600160a01b03861690636352211e90602401602060405180830381865afa158015610bc5573d6000803e3d6000fd5b505050506040513d601f19601f82011682018060405250810190610be991906118cd565b6001600160a01b031614610c1057604051636abb196760e11b815260040160405180910390fd5b804210610c3057604051635983bc6560e11b815260040160405180910390fd5b6040805160c0810182526001600160a01b0380871682523360208084019182528385018881526060850188815260808601888152600060a08801818152600680548352600a909652988120975188549088166001600160a01b0319918216178955955160018901805491909816961695909517909555905160028601555160038501559151600484015592516005909201805492151560ff1990931692909217909155805491610cdf83611900565b9091555050604051632142170760e11b81526001600160a01b038516906342842e0e90610d149033903090889060040161186f565b600060405180830381600087803b158015610d2e57600080fd5b505af1158015610d42573d6000803e3d6000fd5b5050600654339250610d579150600190611919565b6040517f5156e2796e0a4babbb96d9caf8be32edb38dbb4f8ea85ef3cd6fca59de5bdd2590600090a350505050565b610d8e611195565b610d978261123c565b610da182826112b5565b5050565b6000610daf611377565b50600080516020611a6883398151915290565b6000818152600a6020526040902060050154819060ff1615610df757604051637d1928ad60e01b815260040160405180910390fd5b6000818152600a60205260409020600101546001600160a01b03163314610e3157604051636abb196760e11b815260040160405180910390fd5b6000818152600a6020526040902060040154421015610e6357604051637100cb6d60e01b815260040160405180910390fd5b6000818152600a60205260409081902060058101805460ff1916600117905580546002909101549151632142170760e11b81526001600160a01b03909116916342842e0e91610eb991309133919060040161186f565b600060405180830381600087803b158015610ed357600080fd5b505af1158015610ee7573d6000803e3d6000fd5b50506040513392508391507fc50774aca5e13466e9521136a2a34c6ff931e33f6472aba2f910e846d2c3382c90600090a35050565b804210610f3c57604051635983bc6560e11b815260040160405180910390fd5b60003411610f5d5760405163044044a560e21b815260040160405180910390fd5b33610f7b5760405163e6c4247b60e01b815260040160405180910390fd5b6040805160c0810182526001600160a01b038086168252336020808401918252838501878152346060860190815260808601888152600060a08801818152600780548352600b909652988120975188549088166001600160a01b0319918216178955955160018901805491909816961695909517909555905160028601555160038501559151600484015592516005909201805492151560ff199093169290921790915580549161102b83611900565b9091555050600754339061104190600190611919565b6040517f7777ba3c0d320ddcdf43956f7d6e514b7016b79b0b1cf8425f632dee13e8511b90600090a3505050565b7ff0c57e16840df040f15088dc2f81fe391c3923bec73e23a9662efc9c229c6a008054600160401b810460ff16159067ffffffffffffffff166000811580156110b55750825b905060008267ffffffffffffffff1660011480156110d25750303b155b9050811580156110e0575080155b156110fe5760405163f92ee8a960e01b815260040160405180910390fd5b845467ffffffffffffffff19166001178555831561112857845460ff60401b1916600160401b1785555b600880546001600160a01b0319163317905560096111468782611972565b50831561118d57845460ff60401b19168555604051600181527fc7f505b2f371ae2175ee4913f4499e1f2633a7b5936321eed1cdaeb6115181d29060200160405180910390a15b505050505050565b306001600160a01b037f000000000000000000000000000000000000000000000000000000000000000016148061121c57507f00000000000000000000000000000000000000000000000000000000000000006001600160a01b0316611210600080516020611a68833981519152546001600160a01b031690565b6001600160a01b031614155b1561123a5760405163703e46dd60e11b815260040160405180910390fd5b565b6008546001600160a01b031633146112b25760405162461bcd60e51b815260206004820152602e60248201527f4f6e6c792074686520636f6e74726163742773206f776e65722063616e20636160448201526d1b1b081d1a1a5cc81b595d1a1bd960921b60648201526084015b60405180910390fd5b50565b816001600160a01b03166352d1902d6040518163ffffffff1660e01b8152600401602060405180830381865afa92505050801561130f575060408051601f3d908101601f1916820190925261130c91810190611a32565b60015b61133757604051634c9c8ce360e01b81526001600160a01b03831660048201526024016112a9565b600080516020611a68833981519152811461136857604051632a87526960e21b8152600481018290526024016112a9565b61137283836113c0565b505050565b306001600160a01b037f0000000000000000000000000000000000000000000000000000000000000000161461123a5760405163703e46dd60e11b815260040160405180910390fd5b6113c982611416565b6040516001600160a01b038316907fbc7cd75a20ee27fd9adebab32041f755214dbc6bffa90cc0225b39da2e5c2d3b90600090a280511561140e57611372828261147b565b610da16114f3565b806001600160a01b03163b60000361144c57604051634c9c8ce360e01b81526001600160a01b03821660048201526024016112a9565b600080516020611a6883398151915280546001600160a01b0319166001600160a01b0392909216919091179055565b6060600080846001600160a01b0316846040516114989190611a4b565b600060405180830381855af49150503d80600081146114d3576040519150601f19603f3d011682016040523d82523d6000602084013e6114d8565b606091505b50915091506114e8858383611512565b925050505b92915050565b341561123a5760405163b398979f60e01b815260040160405180910390fd5b6060826115275761152282611571565b61156a565b815115801561153e57506001600160a01b0384163b155b1561156757604051639996b31560e01b81526001600160a01b03851660048201526024016112a9565b50805b9392505050565b8051156115815780518082602001fd5b604051630a12f52160e11b815260040160405180910390fd5b6000602082840312156115ac57600080fd5b5035919050565b6001600160a01b03811681146112b257600080fd5b6000806000806000608086880312156115e057600080fd5b85356115eb816115b3565b945060208601356115fb816115b3565b935060408601359250606086013567ffffffffffffffff8082111561161f57600080fd5b818801915088601f83011261163357600080fd5b81358181111561164257600080fd5b89602082850101111561165457600080fd5b9699959850939650602001949392505050565b60005b8381101561168257818101518382015260200161166a565b50506000910152565b60208152600082518060208401526116aa816040850160208701611667565b601f01601f19169190910160400192915050565b600080600080608085870312156116d457600080fd5b84356116df816115b3565b966020860135965060408601359560600135945092505050565b634e487b7160e01b600052604160045260246000fd5b600067ffffffffffffffff8084111561172a5761172a6116f9565b604051601f8501601f19908116603f01168101908282118183101715611752576117526116f9565b8160405280935085815286868601111561176b57600080fd5b858560208301376000602087830101525050509392505050565b6000806040838503121561179857600080fd5b82356117a3816115b3565b9150602083013567ffffffffffffffff8111156117bf57600080fd5b8301601f810185136117d057600080fd5b6117df8582356020840161170f565b9150509250929050565b6000806000606084860312156117fe57600080fd5b8335611809816115b3565b95602085013595506040909401359392505050565b60006020828403121561183057600080fd5b813567ffffffffffffffff81111561184757600080fd5b8201601f8101841361185857600080fd5b6118678482356020840161170f565b949350505050565b6001600160a01b039384168152919092166020820152604081019190915260600190565b600181811c908216806118a757607f821691505b6020821081036118c757634e487b7160e01b600052602260045260246000fd5b50919050565b6000602082840312156118df57600080fd5b815161156a816115b3565b634e487b7160e01b600052601160045260246000fd5b600060018201611912576119126118ea565b5060010190565b818103818111156114ed576114ed6118ea565b601f82111561137257600081815260208120601f850160051c810160208610156119535750805b601f850160051c820191505b8181101561118d5782815560010161195f565b815167ffffffffffffffff81111561198c5761198c6116f9565b6119a08161199a8454611893565b8461192c565b602080601f8311600181146119d557600084156119bd5750858301515b600019600386901b1c1916600185901b17855561118d565b600085815260208120601f198616915b82811015611a04578886015182559484019460019091019084016119e5565b5085821015611a225787850151600019600388901b60f8161c191681555b5050505050600190811b01905550565b600060208284031215611a4457600080fd5b5051919050565b60008251611a5d818460208701611667565b919091019291505056fe360894a13ba1a3210667c828492db98dca3e2076cc3735a920a3ca505d382bbca2646970667358221220e711afffb8083cfe7cb9b1f90b73f3015ae3f69b39d0f2306f0edb65efb3113c64736f6c63430008150033",
        "linkReferences": {}
    },
    "methodIdentifiers": {
        "UPGRADE_INTERFACE_VERSION()": "ad3cb1cc",
        "acceptBuyOffer(uint256)": "45502349",
        "acceptSellOffer(uint256)": "09b06721",
        "buyOfferIdCounter()": "b4405c34",
        "buyOffers(uint256)": "371da599",
        "cancelBuyOffer(uint256)": "1a46829c",
        "cancelSellOffer(uint256)": "98d91a26",
        "createBuyOffer(address,uint256,uint256)": "c79a8ece",
        "createSellOffer(address,uint256,uint256,uint256)": "4e284e3c",
        "getBuyOffer(uint256)": "a7671b35",
        "getSellOffer(uint256)": "c9fa5d2d",
        "initialize(string)": "f62d1888",
        "marketplaceName()": "1d6069fc",
        "offer()": "c028df06",
        "onERC721Received(address,address,uint256,bytes)": "150b7a02",
        "owner()": "8da5cb5b",
        "proxiableUUID()": "52d1902d",
        "sellOfferIdCounter()": "d6ed0cff",
        "sellOffers(uint256)": "17357a7f",
        "upgradeToAndCall(address,bytes)": "4f1ef286"
    },
    "id": 42
}