{
  "abi": [
    {
      "inputs": [],
      "name": "InsufficientDeadline",
      "type": "error"
    },
    {
      "inputs": [],
      "name": "InsufficientValue",
      "type": "error"
    },
    {
      "inputs": [],
      "name": "InvalidAddress",
      "type": "error"
    },
    {
      "inputs": [],
      "name": "NotApproved",
      "type": "error"
    },
    {
      "inputs": [],
      "name": "OfferHasExpired",
      "type": "error"
    },
    {
      "inputs": [],
      "name": "OfferNotExist",
      "type": "error"
    },
    {
      "inputs": [],
      "name": "TransferFailed",
      "type": "error"
    },
    {
      "inputs": [],
      "name": "YouAreNotOwner",
      "type": "error"
    },
    {
      "anonymous": false,
      "inputs": [
        {
          "indexed": true,
          "internalType": "uint256",
          "name": "buyOfferIdCounter",
          "type": "uint256"
        },
        {
          "indexed": true,
          "internalType": "address",
          "name": "acceptedBy",
          "type": "address"
        }
      ],
      "name": "BuyOfferAccepted",
      "type": "event"
    },
    {
      "anonymous": false,
      "inputs": [
        {
          "indexed": true,
          "internalType": "uint256",
          "name": "buyOfferIdCounter",
          "type": "uint256"
        },
        {
          "indexed": true,
          "internalType": "address",
          "name": "cancelledBy",
          "type": "address"
        }
      ],
      "name": "BuyOfferCancelled",
      "type": "event"
    },
    {
      "anonymous": false,
      "inputs": [
        {
          "indexed": true,
          "internalType": "uint256",
          "name": "buyOfferIdCounter",
          "type": "uint256"
        },
        {
          "indexed": true,
          "internalType": "address",
          "name": "createdBy",
          "type": "address"
        }
      ],
      "name": "NewBuyOffer",
      "type": "event"
    },
    {
      "anonymous": false,
      "inputs": [
        {
          "indexed": true,
          "internalType": "uint256",
          "name": "sellOfferIdCounter",
          "type": "uint256"
        },
        {
          "indexed": true,
          "internalType": "address",
          "name": "createdBy",
          "type": "address"
        }
      ],
      "name": "NewSellOffer",
      "type": "event"
    },
    {
      "anonymous": false,
      "inputs": [
        {
          "indexed": true,
          "internalType": "uint256",
          "name": "sellOfferIdCounter",
          "type": "uint256"
        },
        {
          "indexed": true,
          "internalType": "address",
          "name": "acceptedBy",
          "type": "address"
        }
      ],
      "name": "SellOfferAccepted",
      "type": "event"
    },
    {
      "anonymous": false,
      "inputs": [
        {
          "indexed": true,
          "internalType": "uint256",
          "name": "sellOfferIdCounter",
          "type": "uint256"
        },
        {
          "indexed": true,
          "internalType": "address",
          "name": "cancelledBy",
          "type": "address"
        }
      ],
      "name": "SellOfferCancelled",
      "type": "event"
    },
    {
      "stateMutability": "payable",
      "type": "fallback"
    },
    {
      "inputs": [
        {
          "internalType": "uint256",
          "name": "_buyOfferIdCounter",
          "type": "uint256"
        }
      ],
      "name": "BuyMALOffer",
      "outputs": [],
      "stateMutability": "nonpayable",
      "type": "function"
    },
    {
      "inputs": [
        {
          "internalType": "uint256",
          "name": "_buyOfferIdCounter",
          "type": "uint256"
        }
      ],
      "name": "acceptBuyOffer",
      "outputs": [],
      "stateMutability": "nonpayable",
      "type": "function"
    },
    {
      "inputs": [
        {
          "internalType": "uint256",
          "name": "_sellOfferIdCounter",
          "type": "uint256"
        }
      ],
      "name": "acceptSellOffer",
      "outputs": [],
      "stateMutability": "payable",
      "type": "function"
    },
    {
      "inputs": [],
      "name": "buyOfferIdCounter",
      "outputs": [
        {
          "internalType": "uint256",
          "name": "",
          "type": "uint256"
        }
      ],
      "stateMutability": "view",
      "type": "function"
    },
    {
      "inputs": [
        {
          "internalType": "uint256",
          "name": "",
          "type": "uint256"
        }
      ],
      "name": "buyOffers",
      "outputs": [
        {
          "internalType": "address",
          "name": "nftAddress",
          "type": "address"
        },
        {
          "internalType": "address",
          "name": "offerer",
          "type": "address"
        },
        {
          "internalType": "uint256",
          "name": "tokenId",
          "type": "uint256"
        },
        {
          "internalType": "uint256",
          "name": "price",
          "type": "uint256"
        },
        {
          "internalType": "uint256",
          "name": "deadline",
          "type": "uint256"
        },
        {
          "internalType": "bool",
          "name": "isEnded",
          "type": "bool"
        }
      ],
      "stateMutability": "view",
      "type": "function"
    },
    {
      "inputs": [
        {
          "internalType": "uint256",
          "name": "_buyOfferIdCounter",
          "type": "uint256"
        }
      ],
      "name": "cancelBuyOffer",
      "outputs": [],
      "stateMutability": "nonpayable",
      "type": "function"
    },
    {
      "inputs": [
        {
          "internalType": "uint256",
          "name": "_sellOfferIdCounter",
          "type": "uint256"
        }
      ],
      "name": "cancelSellOffer",
      "outputs": [],
      "stateMutability": "nonpayable",
      "type": "function"
    },
    {
      "inputs": [
        {
          "internalType": "address",
          "name": "_nftAddress",
          "type": "address"
        },
        {
          "internalType": "uint256",
          "name": "_tokenId",
          "type": "uint256"
        },
        {
          "internalType": "uint256",
          "name": "_deadline",
          "type": "uint256"
        }
      ],
      "name": "createBuyOffer",
      "outputs": [],
      "stateMutability": "payable",
      "type": "function"
    },
    {
      "inputs": [
        {
          "internalType": "address",
          "name": "_nftAddress",
          "type": "address"
        },
        {
          "internalType": "uint256",
          "name": "_tokenId",
          "type": "uint256"
        },
        {
          "internalType": "uint256",
          "name": "_price",
          "type": "uint256"
        },
        {
          "internalType": "uint256",
          "name": "_deadline",
          "type": "uint256"
        }
      ],
      "name": "createSellOffer",
      "outputs": [],
      "stateMutability": "nonpayable",
      "type": "function"
    },
    {
      "inputs": [
        {
          "internalType": "string",
          "name": "_marketplaceName",
          "type": "string"
        }
      ],
      "name": "initialize",
      "outputs": [],
      "stateMutability": "nonpayable",
      "type": "function"
    },
    {
      "inputs": [],
      "name": "marketplaceName",
      "outputs": [
        {
          "internalType": "string",
          "name": "",
          "type": "string"
        }
      ],
      "stateMutability": "view",
      "type": "function"
    },
    {
      "inputs": [],
      "name": "offer",
      "outputs": [
        {
          "internalType": "address",
          "name": "nftAddress",
          "type": "address"
        },
        {
          "internalType": "address",
          "name": "offerer",
          "type": "address"
        },
        {
          "internalType": "uint256",
          "name": "tokenId",
          "type": "uint256"
        },
        {
          "internalType": "uint256",
          "name": "price",
          "type": "uint256"
        },
        {
          "internalType": "uint256",
          "name": "deadline",
          "type": "uint256"
        },
        {
          "internalType": "bool",
          "name": "isEnded",
          "type": "bool"
        }
      ],
      "stateMutability": "view",
      "type": "function"
    },
    {
      "inputs": [
        {
          "internalType": "address",
          "name": "operator",
          "type": "address"
        },
        {
          "internalType": "address",
          "name": "from",
          "type": "address"
        },
        {
          "internalType": "uint256",
          "name": "tokenId",
          "type": "uint256"
        },
        {
          "internalType": "bytes",
          "name": "data",
          "type": "bytes"
        }
      ],
      "name": "onERC721Received",
      "outputs": [
        {
          "internalType": "bytes4",
          "name": "",
          "type": "bytes4"
        }
      ],
      "stateMutability": "pure",
      "type": "function"
    },
    {
      "inputs": [],
      "name": "owner",
      "outputs": [
        {
          "internalType": "address",
          "name": "",
          "type": "address"
        }
      ],
      "stateMutability": "view",
      "type": "function"
    },
    {
      "inputs": [],
      "name": "sellOfferIdCounter",
      "outputs": [
        {
          "internalType": "uint256",
          "name": "",
          "type": "uint256"
        }
      ],
      "stateMutability": "view",
      "type": "function"
    },
    {
      "inputs": [
        {
          "internalType": "uint256",
          "name": "",
          "type": "uint256"
        }
      ],
      "name": "sellOffers",
      "outputs": [
        {
          "internalType": "address",
          "name": "nftAddress",
          "type": "address"
        },
        {
          "internalType": "address",
          "name": "offerer",
          "type": "address"
        },
        {
          "internalType": "uint256",
          "name": "tokenId",
          "type": "uint256"
        },
        {
          "internalType": "uint256",
          "name": "price",
          "type": "uint256"
        },
        {
          "internalType": "uint256",
          "name": "deadline",
          "type": "uint256"
        },
        {
          "internalType": "bool",
          "name": "isEnded",
          "type": "bool"
        }
      ],
      "stateMutability": "view",
      "type": "function"
    },
    {
      "stateMutability": "payable",
      "type": "receive"
    }
  ],
  "bytecode": {
    "object": "0x608060405234801561001057600080fd5b50611962806100206000396000f3fe6080604052600436106100eb5760003560e01c80638da5cb5b11610084578063c028df0611610056578063c028df0614610369578063c79a8ece146103a3578063d6ed0cff146103b6578063f62d1888146103cc57005b80638da5cb5b146102cd57806398d91a2614610305578063b4405c3414610325578063b52436851461034957005b80631d6069fc116100bd5780631d6069fc1461020b578063371da5991461022d578063455023491461028d5780634e284e3c146102ad57005b806309b06721146100f4578063150b7a021461010757806317357a7f146101515780631a46829c146101eb57005b366100f257005b005b6100f26101023660046114c9565b6103ec565b34801561011357600080fd5b506101336101223660046114fa565b630a85bd0160e11b95945050505050565b6040516001600160e01b031990911681526020015b60405180910390f35b34801561015d57600080fd5b506101b161016c3660046114c9565b600a602052600090815260409020805460018201546002830154600384015460048501546005909501546001600160a01b039485169593909416939192909160ff1686565b604080516001600160a01b0397881681529690951660208701529385019290925260608401526080830152151560a082015260c001610148565b3480156101f757600080fd5b506100f26102063660046114c9565b6105de565b34801561021757600080fd5b50610220610733565b60405161014891906115df565b34801561023957600080fd5b506101b16102483660046114c9565b600b602052600090815260409020805460018201546002830154600384015460048501546005909501546001600160a01b039485169593909416939192909160ff1686565b34801561029957600080fd5b506100f26102a83660046114c9565b6107c1565b3480156102b957600080fd5b506100f26102c83660046115f9565b610bbd565b3480156102d957600080fd5b506008546102ed906001600160a01b031681565b6040516001600160a01b039091168152602001610148565b34801561031157600080fd5b506100f26103203660046114c9565b610de6565b34801561033157600080fd5b5061033b60075481565b604051908152602001610148565b34801561035557600080fd5b506100f26103643660046114c9565b610f40565b34801561037557600080fd5b506000546001546002546003546004546005546101b1956001600160a01b0390811695169392919060ff1686565b6100f26103b1366004611634565b6112f3565b3480156103c257600080fd5b5061033b60065481565b3480156103d857600080fd5b506100f26103e736600461167f565b611446565b6000818152600a6020526040902060050154819060ff161561042157604051637d1928ad60e01b815260040160405180910390fd5b6000818152600a602052604090206004015442106104525760405163fe34af8760e01b815260040160405180910390fd5b6000818152600a60205260409020600301543410156104845760405163044044a560e21b815260040160405180910390fd5b336104a25760405163e6c4247b60e01b815260040160405180910390fd5b6000818152600a60205260409081902060058101805460ff1916600117905580546002909101549151632142170760e11b81526001600160a01b03909116916342842e0e916104f8913091339190600401611730565b600060405180830381600087803b15801561051257600080fd5b505af1158015610526573d6000803e3d6000fd5b5050506000828152600a60205260408082206001015490519192506001600160a01b03169034908381818185875af1925050503d8060008114610585576040519150601f19603f3d011682016040523d82523d6000602084013e61058a565b606091505b50509050806105ac576040516312171d8360e31b815260040160405180910390fd5b604051339083907fbd02e21f9bbd354fa57e2d00821fc7c6e6bab2b28ae5d54962342ea53f8d6be890600090a3505050565b6000818152600b602052604090206005015460ff161561061157604051637d1928ad60e01b815260040160405180910390fd5b6000818152600b60205260409020600101546001600160a01b0316331461064b57604051636abb196760e11b815260040160405180910390fd5b6000818152600b6020526040902060040154421061067c5760405163fe34af8760e01b815260040160405180910390fd5b6000818152600b602052604080822060058101805460ff191660011790556003015490513391908381818185875af1925050503d80600081146106db576040519150601f19603f3d011682016040523d82523d6000602084013e6106e0565b606091505b5050905080610702576040516312171d8360e31b815260040160405180910390fd5b604051339083907f4e130e6d0553efd75e9f43a36ab18e66773605643091a1a51895ec25fd6ddc2f90600090a35050565b6009805461074090611754565b80601f016020809104026020016040519081016040528092919081815260200182805461076c90611754565b80156107b95780601f1061078e576101008083540402835291602001916107b9565b820191906000526020600020905b81548152906001019060200180831161079c57829003601f168201915b505050505081565b6000818152600b6020526040902060050154819060ff16156107f657604051637d1928ad60e01b815260040160405180910390fd5b6000818152600b602052604090819020805460029091015491516331a9108f60e11b8152600481019290925233916001600160a01b0390911690636352211e90602401602060405180830381865afa158015610856573d6000803e3d6000fd5b505050506040513d601f19601f8201168201806040525081019061087a919061178e565b6001600160a01b0316146108a157604051636abb196760e11b815260040160405180910390fd5b6000818152600b602052604090206004015442106108d25760405163fe34af8760e01b815260040160405180910390fd5b6000818152600b60205260409081902060018101548154600290920154925163020604bf60e21b815260048101939093526001600160a01b039081169291169063081812fc90602401602060405180830381865afa158015610938573d6000803e3d6000fd5b505050506040513d601f19601f8201168201806040525081019061095c919061178e565b6001600160a01b0316146109835760405163c19f17a960e01b815260040160405180910390fd5b6000818152600b6020818152604080842060058101805460ff19166001179055815180830183526008815267105c1c1c9bdd995960c21b8185015294869052929091528154600290920154905163020604bf60e21b8152610a4693926001600160a01b03169163081812fc91610a00919060040190815260200190565b602060405180830381865afa158015610a1d573d6000803e3d6000fd5b505050506040513d601f19601f82011682018060405250810190610a41919061178e565b611468565b60408051808201825260128152710b0b0b0b09c8ca882c8c8e4cae6e6b0b0b0b60731b6020808301919091526000848152600b9091529190912054610a9491906001600160a01b0316611468565b6000818152600b6020526040908190208054600182015460029092015492516323b872dd60e01b81526001600160a01b03918216936323b872dd93610ae193339391169190600401611730565b600060405180830381600087803b158015610afb57600080fd5b505af1158015610b0f573d6000803e3d6000fd5b5050506000828152600b602052604080822060030154905191925033918381818185875af1925050503d8060008114610b64576040519150601f19603f3d011682016040523d82523d6000602084013e610b69565b606091505b5050905080610b8b576040516312171d8360e31b815260040160405180910390fd5b604051339083907fa18cc9e7d1895a5de963c792c7a9561bd041896889b25f231d77b0a479c4342790600090a3505050565b60008211610bde5760405163044044a560e21b815260040160405180910390fd5b6040516331a9108f60e11b81526004810184905233906001600160a01b03861690636352211e90602401602060405180830381865afa158015610c25573d6000803e3d6000fd5b505050506040513d601f19601f82011682018060405250810190610c49919061178e565b6001600160a01b031614610c7057604051636abb196760e11b815260040160405180910390fd5b804210610c9057604051635983bc6560e11b815260040160405180910390fd5b6040805160c0810182526001600160a01b0380871682523360208084019182528385018881526060850188815260808601888152600060a08801818152600680548352600a909652988120975188549088166001600160a01b0319918216178955955160018901805491909816961695909517909555905160028601555160038501559151600484015592516005909201805492151560ff1990931692909217909155805491610d3f836117c1565b9091555050604051632142170760e11b81526001600160a01b038516906342842e0e90610d7490339030908890600401611730565b600060405180830381600087803b158015610d8e57600080fd5b505af1158015610da2573d6000803e3d6000fd5b5050600654339250610db791506001906117da565b6040517f5156e2796e0a4babbb96d9caf8be32edb38dbb4f8ea85ef3cd6fca59de5bdd2590600090a350505050565b6000818152600a6020526040902060050154819060ff1615610e1b57604051637d1928ad60e01b815260040160405180910390fd5b6000818152600a60205260409020600101546001600160a01b03163314610e5557604051636abb196760e11b815260040160405180910390fd5b6000818152600a6020526040902060040154421115610e875760405163fe34af8760e01b815260040160405180910390fd5b6000818152600a60205260409081902060058101805460ff1916600117905580546002909101549151632142170760e11b81526001600160a01b03909116916342842e0e91610edd913091339190600401611730565b600060405180830381600087803b158015610ef757600080fd5b505af1158015610f0b573d6000803e3d6000fd5b50506040513392508391507fc50774aca5e13466e9521136a2a34c6ff931e33f6472aba2f910e846d2c3382c90600090a35050565b6000818152600b602052604090206005015460ff1615610f7357604051637d1928ad60e01b815260040160405180910390fd5b6000818152600b602052604090819020805460029091015491516331a9108f60e11b8152600481019290925233916001600160a01b0390911690636352211e90602401602060405180830381865afa158015610fd3573d6000803e3d6000fd5b505050506040513d601f19601f82011682018060405250810190610ff7919061178e565b6001600160a01b03161461101e57604051636abb196760e11b815260040160405180910390fd5b6000818152600b6020526040902060040154421061104f5760405163fe34af8760e01b815260040160405180910390fd5b6000818152600b60205260409081902060018101548154600290920154925163020604bf60e21b815260048101939093526001600160a01b039081169291169063081812fc90602401602060405180830381865afa1580156110b5573d6000803e3d6000fd5b505050506040513d601f19601f820116820180604052508101906110d9919061178e565b6001600160a01b0316146111005760405163c19f17a960e01b815260040160405180910390fd5b6000818152600b6020818152604080842060058101805460ff19166001179055815180830183526008815267105c1c1c9bdd995960c21b8185015294869052929091528154600290920154905163020604bf60e21b815261117d93926001600160a01b03169163081812fc91610a00919060040190815260200190565b60408051808201825260128152710b0b0b0b09c8ca882c8c8e4cae6e6b0b0b0b60731b6020808301919091526000848152600b90915291909120546111cb91906001600160a01b0316611468565b6000818152600b6020526040908190208054600182015460029092015492516323b872dd60e01b81526001600160a01b03918216936323b872dd9361121893339391169190600401611730565b600060405180830381600087803b15801561123257600080fd5b505af1158015611246573d6000803e3d6000fd5b5050506000828152600b602052604080822060030154905191925033918381818185875af1925050503d806000811461129b576040519150601f19603f3d011682016040523d82523d6000602084013e6112a0565b606091505b50509050806112c2576040516312171d8360e31b815260040160405180910390fd5b604051339083907fa18cc9e7d1895a5de963c792c7a9561bd041896889b25f231d77b0a479c4342790600090a35050565b80421061131357604051635983bc6560e11b815260040160405180910390fd5b600034116113345760405163044044a560e21b815260040160405180910390fd5b336113525760405163e6c4247b60e01b815260040160405180910390fd5b6040805160c0810182526001600160a01b038086168252336020808401918252838501878152346060860190815260808601888152600060a08801818152600780548352600b909652988120975188549088166001600160a01b0319918216178955955160018901805491909816961695909517909555905160028601555160038501559151600484015592516005909201805492151560ff1990931692909217909155805491611402836117c1565b90915550506007543390611418906001906117da565b6040517f7777ba3c0d320ddcdf43956f7d6e514b7016b79b0b1cf8425f632dee13e8511b90600090a3505050565b600880546001600160a01b0319163317905560096114648282611842565b5050565b611464828260405160240161147e929190611902565b60408051601f198184030181529190526020810180516001600160e01b031663319af33360e01b17905280516a636f6e736f6c652e6c6f67602083016000808483855afa5050505050565b6000602082840312156114db57600080fd5b5035919050565b6001600160a01b03811681146114f757600080fd5b50565b60008060008060006080868803121561151257600080fd5b853561151d816114e2565b9450602086013561152d816114e2565b935060408601359250606086013567ffffffffffffffff8082111561155157600080fd5b818801915088601f83011261156557600080fd5b81358181111561157457600080fd5b89602082850101111561158657600080fd5b9699959850939650602001949392505050565b6000815180845260005b818110156115bf576020818501810151868301820152016115a3565b506000602082860101526020601f19601f83011685010191505092915050565b6020815260006115f26020830184611599565b9392505050565b6000806000806080858703121561160f57600080fd5b843561161a816114e2565b966020860135965060408601359560600135945092505050565b60008060006060848603121561164957600080fd5b8335611654816114e2565b95602085013595506040909401359392505050565b634e487b7160e01b600052604160045260246000fd5b60006020828403121561169157600080fd5b813567ffffffffffffffff808211156116a957600080fd5b818401915084601f8301126116bd57600080fd5b8135818111156116cf576116cf611669565b604051601f8201601f19908116603f011681019083821181831017156116f7576116f7611669565b8160405282815287602084870101111561171057600080fd5b826020860160208301376000928101602001929092525095945050505050565b6001600160a01b039384168152919092166020820152604081019190915260600190565b600181811c9082168061176857607f821691505b60208210810361178857634e487b7160e01b600052602260045260246000fd5b50919050565b6000602082840312156117a057600080fd5b81516115f2816114e2565b634e487b7160e01b600052601160045260246000fd5b6000600182016117d3576117d36117ab565b5060010190565b818103818111156117ed576117ed6117ab565b92915050565b601f82111561183d57600081815260208120601f850160051c8101602086101561181a5750805b601f850160051c820191505b8181101561183957828155600101611826565b5050505b505050565b815167ffffffffffffffff81111561185c5761185c611669565b6118708161186a8454611754565b846117f3565b602080601f8311600181146118a5576000841561188d5750858301515b600019600386901b1c1916600185901b178555611839565b600085815260208120601f198616915b828110156118d4578886015182559484019460019091019084016118b5565b50858210156118f25787850151600019600388901b60f8161c191681555b5050505050600190811b01905550565b6040815260006119156040830185611599565b905060018060a01b0383166020830152939250505056fea26469706673582212203d59a2e71fe95b8f3a7df84d76a486e006c5660b47aa8d3cba6a247332c11d9764736f6c63430008150033",
    "linkReferences": {}
  },
  "methodIdentifiers": {
    "BuyMALOffer(uint256)": "b5243685",
    "acceptBuyOffer(uint256)": "45502349",
    "acceptSellOffer(uint256)": "09b06721",
    "buyOfferIdCounter()": "b4405c34",
    "buyOffers(uint256)": "371da599",
    "cancelBuyOffer(uint256)": "1a46829c",
    "cancelSellOffer(uint256)": "98d91a26",
    "createBuyOffer(address,uint256,uint256)": "c79a8ece",
    "createSellOffer(address,uint256,uint256,uint256)": "4e284e3c",
    "initialize(string)": "f62d1888",
    "marketplaceName()": "1d6069fc",
    "offer()": "c028df06",
    "onERC721Received(address,address,uint256,bytes)": "150b7a02",
    "owner()": "8da5cb5b",
    "sellOfferIdCounter()": "d6ed0cff",
    "sellOffers(uint256)": "17357a7f"
  },
  "id": 41
}